{
  "contractName": "Project",
  "abi": [
    {
      "constant": true,
      "inputs": [
        {
          "name": "",
          "type": "uint256"
        }
      ],
      "name": "contributions",
      "outputs": [
        {
          "name": "amount",
          "type": "uint256"
        },
        {
          "name": "contributor",
          "type": "address"
        }
      ],
      "payable": false,
      "stateMutability": "view",
      "type": "function"
    },
    {
      "constant": true,
      "inputs": [
        {
          "name": "",
          "type": "address"
        }
      ],
      "name": "contributors",
      "outputs": [
        {
          "name": "",
          "type": "uint256"
        }
      ],
      "payable": false,
      "stateMutability": "view",
      "type": "function"
    },
    {
      "constant": true,
      "inputs": [],
      "name": "contributionsCount",
      "outputs": [
        {
          "name": "",
          "type": "uint256"
        }
      ],
      "payable": false,
      "stateMutability": "view",
      "type": "function"
    },
    {
      "constant": true,
      "inputs": [],
      "name": "contributorsCount",
      "outputs": [
        {
          "name": "",
          "type": "uint256"
        }
      ],
      "payable": false,
      "stateMutability": "view",
      "type": "function"
    },
    {
      "constant": true,
      "inputs": [],
      "name": "fundingHub",
      "outputs": [
        {
          "name": "",
          "type": "address"
        }
      ],
      "payable": false,
      "stateMutability": "view",
      "type": "function"
    },
    {
      "constant": true,
      "inputs": [],
      "name": "properties",
      "outputs": [
        {
          "name": "goal",
          "type": "uint256"
        },
        {
          "name": "deadline",
          "type": "uint256"
        },
        {
          "name": "title",
          "type": "string"
        },
        {
          "name": "creator",
          "type": "address"
        }
      ],
      "payable": false,
      "stateMutability": "view",
      "type": "function"
    },
    {
      "constant": true,
      "inputs": [],
      "name": "totalFunding",
      "outputs": [
        {
          "name": "",
          "type": "uint256"
        }
      ],
      "payable": false,
      "stateMutability": "view",
      "type": "function"
    },
    {
      "inputs": [
        {
          "name": "_fundingGoal",
          "type": "uint256"
        },
        {
          "name": "_deadline",
          "type": "uint256"
        },
        {
          "name": "_title",
          "type": "string"
        },
        {
          "name": "_creator",
          "type": "address"
        }
      ],
      "payable": false,
      "stateMutability": "nonpayable",
      "type": "constructor"
    },
    {
      "payable": false,
      "stateMutability": "nonpayable",
      "type": "fallback"
    },
    {
      "anonymous": false,
      "inputs": [
        {
          "indexed": false,
          "name": "projectAddress",
          "type": "address"
        },
        {
          "indexed": false,
          "name": "contributor",
          "type": "address"
        },
        {
          "indexed": false,
          "name": "amount",
          "type": "uint256"
        }
      ],
      "name": "LogContributionReceived",
      "type": "event"
    },
    {
      "anonymous": false,
      "inputs": [
        {
          "indexed": false,
          "name": "projectAddress",
          "type": "address"
        },
        {
          "indexed": false,
          "name": "owner",
          "type": "address"
        },
        {
          "indexed": false,
          "name": "totalPayout",
          "type": "uint256"
        }
      ],
      "name": "LogPayoutInitiated",
      "type": "event"
    },
    {
      "anonymous": false,
      "inputs": [
        {
          "indexed": false,
          "name": "projectAddress",
          "type": "address"
        },
        {
          "indexed": false,
          "name": "contributor",
          "type": "address"
        },
        {
          "indexed": false,
          "name": "refundAmount",
          "type": "uint256"
        }
      ],
      "name": "LogRefundIssued",
      "type": "event"
    },
    {
      "anonymous": false,
      "inputs": [
        {
          "indexed": false,
          "name": "projectAddress",
          "type": "address"
        },
        {
          "indexed": false,
          "name": "totalFunding",
          "type": "uint256"
        },
        {
          "indexed": false,
          "name": "totalContributions",
          "type": "uint256"
        }
      ],
      "name": "LogFundingGoalReached",
      "type": "event"
    },
    {
      "anonymous": false,
      "inputs": [
        {
          "indexed": false,
          "name": "projectAddress",
          "type": "address"
        },
        {
          "indexed": false,
          "name": "totalFunding",
          "type": "uint256"
        },
        {
          "indexed": false,
          "name": "totalContributions",
          "type": "uint256"
        }
      ],
      "name": "LogFundingFailed",
      "type": "event"
    },
    {
      "anonymous": false,
      "inputs": [
        {
          "indexed": false,
          "name": "message",
          "type": "string"
        }
      ],
      "name": "LogFailure",
      "type": "event"
    },
    {
      "constant": true,
      "inputs": [],
      "name": "getProject",
      "outputs": [
        {
          "name": "",
          "type": "string"
        },
        {
          "name": "",
          "type": "uint256"
        },
        {
          "name": "",
          "type": "uint256"
        },
        {
          "name": "",
          "type": "address"
        },
        {
          "name": "",
          "type": "uint256"
        },
        {
          "name": "",
          "type": "uint256"
        },
        {
          "name": "",
          "type": "uint256"
        },
        {
          "name": "",
          "type": "address"
        },
        {
          "name": "",
          "type": "address"
        }
      ],
      "payable": false,
      "stateMutability": "view",
      "type": "function"
    },
    {
      "constant": true,
      "inputs": [
        {
          "name": "_id",
          "type": "uint256"
        }
      ],
      "name": "getContribution",
      "outputs": [
        {
          "name": "",
          "type": "uint256"
        },
        {
          "name": "",
          "type": "address"
        }
      ],
      "payable": false,
      "stateMutability": "view",
      "type": "function"
    },
    {
      "constant": false,
      "inputs": [
        {
          "name": "_contributor",
          "type": "address"
        }
      ],
      "name": "fund",
      "outputs": [
        {
          "name": "successful",
          "type": "bool"
        }
      ],
      "payable": true,
      "stateMutability": "payable",
      "type": "function"
    },
    {
      "constant": false,
      "inputs": [],
      "name": "payout",
      "outputs": [
        {
          "name": "successful",
          "type": "bool"
        }
      ],
      "payable": true,
      "stateMutability": "payable",
      "type": "function"
    },
    {
      "constant": false,
      "inputs": [],
      "name": "refund",
      "outputs": [
        {
          "name": "successful",
          "type": "bool"
        }
      ],
      "payable": true,
      "stateMutability": "payable",
      "type": "function"
    },
    {
      "constant": false,
      "inputs": [],
      "name": "kill",
      "outputs": [],
      "payable": false,
      "stateMutability": "nonpayable",
      "type": "function"
    }
  ],
  "bytecode": "0x60806040523480156200001157600080fd5b506040516200183538038062001835833981018060405260808110156200003757600080fd5b81019080805190602001909291908051906020019092919080516401000000008111156200006457600080fd5b828101905060208101848111156200007b57600080fd5b81518560018202830111640100000000821117156200009957600080fd5b5050929190602001805190602001909291905050506000841162000109576040517f08c379a000000000000000000000000000000000000000000000000000000000815260040180806020018281038252602b815260200180620017d3602b913960400191505060405180910390fd5b82431062000163576040517f08c379a0000000000000000000000000000000000000000000000000000000008152600401808060200182810382526037815260200180620017fe6037913960400191505060405180910390fd5b600073ffffffffffffffffffffffffffffffffffffffff168173ffffffffffffffffffffffffffffffffffffffff161415620001eb576040517f08c379a000000000000000000000000000000000000000000000000000000000815260040180806020018281038252602c815260200180620017a7602c913960400191505060405180910390fd5b336000806101000a81548173ffffffffffffffffffffffffffffffffffffffff021916908373ffffffffffffffffffffffffffffffffffffffff16021790555060405180608001604052808581526020018481526020018381526020018273ffffffffffffffffffffffffffffffffffffffff168152506006600082015181600001556020820151816001015560408201518160020190805190602001906200029692919062000303565b5060608201518160030160006101000a81548173ffffffffffffffffffffffffffffffffffffffff021916908373ffffffffffffffffffffffffffffffffffffffff16021790555090505060006003819055506000600481905550600060058190555050505050620003b2565b828054600181600116156101000203166002900490600052602060002090601f016020900481019282601f106200034657805160ff191683800117855562000377565b8280016001018555821562000377579182015b828111156200037657825182559160200191906001019062000359565b5b5090506200038691906200038a565b5090565b620003af91905b80821115620003ab57600081600090555060010162000391565b5090565b90565b6113e580620003c26000396000f3fe6080604052600436106100c25760003560e01c806363bd1d4a1161007f578063cef4225411610059578063cef422541461047d578063f9b8057f146104ff578063fcd802b114610556578063fe47a8a714610627576100c2565b806363bd1d4a146102e45780636e57b700146103065780637569b3d714610452576100c2565b80631cee07001461013d5780631f6d4942146101bf5780632302440814610224578063386581751461028057806341c0e1b5146102ab578063590e1ae3146102c2575b3480156100ce57600080fd5b506040517f08c379a00000000000000000000000000000000000000000000000000000000081526004018080602001828103825260038152602001807f2e2e2e000000000000000000000000000000000000000000000000000000000081525060200191505060405180910390fd5b34801561014957600080fd5b506101766004803603602081101561016057600080fd5b8101908080359060200190929190505050610652565b604051808381526020018273ffffffffffffffffffffffffffffffffffffffff1673ffffffffffffffffffffffffffffffffffffffff1681526020019250505060405180910390f35b3480156101cb57600080fd5b5061020e600480360360208110156101e257600080fd5b81019080803573ffffffffffffffffffffffffffffffffffffffff169060200190929190505050610696565b6040518082815260200191505060405180910390f35b6102666004803603602081101561023a57600080fd5b81019080803573ffffffffffffffffffffffffffffffffffffffff1690602001909291905050506106ae565b604051808215151515815260200191505060405180910390f35b34801561028c57600080fd5b50610295610ba6565b6040518082815260200191505060405180910390f35b3480156102b757600080fd5b506102c0610bac565b005b6102ca610ca8565b604051808215151515815260200191505060405180910390f35b6102ec610ede565b604051808215151515815260200191505060405180910390f35b34801561031257600080fd5b5061031b610fe0565b60405180806020018a81526020018981526020018873ffffffffffffffffffffffffffffffffffffffff1673ffffffffffffffffffffffffffffffffffffffff1681526020018781526020018681526020018581526020018473ffffffffffffffffffffffffffffffffffffffff1673ffffffffffffffffffffffffffffffffffffffff1681526020018373ffffffffffffffffffffffffffffffffffffffff1673ffffffffffffffffffffffffffffffffffffffff16815260200182810382528b818151815260200191508051906020019080838360005b8381101561040f5780820151818401526020810190506103f4565b50505050905090810190601f16801561043c5780820380516001836020036101000a031916815260200191505b509a505050505050505050505060405180910390f35b34801561045e57600080fd5b50610467611110565b6040518082815260200191505060405180910390f35b34801561048957600080fd5b506104b6600480360360208110156104a057600080fd5b8101908080359060200190929190505050611116565b604051808381526020018273ffffffffffffffffffffffffffffffffffffffff1673ffffffffffffffffffffffffffffffffffffffff1681526020019250505060405180910390f35b34801561050b57600080fd5b506105146111b5565b604051808273ffffffffffffffffffffffffffffffffffffffff1673ffffffffffffffffffffffffffffffffffffffff16815260200191505060405180910390f35b34801561056257600080fd5b5061056b6111da565b60405180858152602001848152602001806020018373ffffffffffffffffffffffffffffffffffffffff1673ffffffffffffffffffffffffffffffffffffffff168152602001828103825284818151815260200191508051906020019080838360005b838110156105e95780820151818401526020810190506105ce565b50505050905090810190601f1680156106165780820380516001836020036101000a031916815260200191505b509550505050505060405180910390f35b34801561063357600080fd5b5061063c6112b0565b6040518082815260200191505060405180910390f35b60026020528060005260406000206000915090508060000154908060010160009054906101000a900473ffffffffffffffffffffffffffffffffffffffff16905082565b60016020528060005260406000206000915090505481565b6000803411610708576040517f08c379a00000000000000000000000000000000000000000000000000000000081526004018080602001828103825260308152602001806113156030913960400191505060405180910390fd5b6000809054906101000a900473ffffffffffffffffffffffffffffffffffffffff1673ffffffffffffffffffffffffffffffffffffffff163373ffffffffffffffffffffffffffffffffffffffff16146107ad576040517f08c379a00000000000000000000000000000000000000000000000000000000081526004018080602001828103825260428152602001806113456042913960600191505060405180910390fd5b60066001015443111561083a577f06a029cfeb9ba6076c9c728f3ac5eb2de5535c866f145b0679a2f5fb2afcae6130600354600454604051808473ffffffffffffffffffffffffffffffffffffffff1673ffffffffffffffffffffffffffffffffffffffff168152602001838152602001828152602001935050505060405180910390a160009050610ba1565b600660000154600354106108d1577ff2f86ff1ec83177c1a8bfc8a746ed87b25fb731cd937a710b77139e477d2ab4230600354600454604051808473ffffffffffffffffffffffffffffffffffffffff1673ffffffffffffffffffffffffffffffffffffffff168152602001838152602001828152602001935050505060405180910390a16108c7610ede565b5060009050610ba1565b6000600160008473ffffffffffffffffffffffffffffffffffffffff1673ffffffffffffffffffffffffffffffffffffffff16815260200190815260200160002054905061091d6112b6565b600260006004548152602001908152602001600020604051806040016040529081600082015481526020016001820160009054906101000a900473ffffffffffffffffffffffffffffffffffffffff1673ffffffffffffffffffffffffffffffffffffffff1673ffffffffffffffffffffffffffffffffffffffff1681525050905083816020019073ffffffffffffffffffffffffffffffffffffffff16908173ffffffffffffffffffffffffffffffffffffffff16815250503481600001818152505034600160008673ffffffffffffffffffffffffffffffffffffffff1673ffffffffffffffffffffffffffffffffffffffff16815260200190815260200160002060008282540192505081905550346003600082825401925050819055506004600081548092919060010191905055506000821415610a6c576005600081548092919060010191905055505b7f1613ab8aabab6179e17fac6982185658b18ef4166931650cf8a2d5ed1a987aeb308534604051808473ffffffffffffffffffffffffffffffffffffffff1673ffffffffffffffffffffffffffffffffffffffff1681526020018373ffffffffffffffffffffffffffffffffffffffff1673ffffffffffffffffffffffffffffffffffffffff168152602001828152602001935050505060405180910390a160066000015460035410610b9a577ff2f86ff1ec83177c1a8bfc8a746ed87b25fb731cd937a710b77139e477d2ab4230600354600454604051808473ffffffffffffffffffffffffffffffffffffffff1673ffffffffffffffffffffffffffffffffffffffff168152602001838152602001828152602001935050505060405180910390a1610b98610ede565b505b6001925050505b919050565b60045481565b3373ffffffffffffffffffffffffffffffffffffffff166000809054906101000a900473ffffffffffffffffffffffffffffffffffffffff1673ffffffffffffffffffffffffffffffffffffffff1614610c6e576040517f08c379a00000000000000000000000000000000000000000000000000000000081526004018080602001828103825260038152602001807f2e2e2e000000000000000000000000000000000000000000000000000000000081525060200191505060405180910390fd5b6000809054906101000a900473ffffffffffffffffffffffffffffffffffffffff1673ffffffffffffffffffffffffffffffffffffffff16ff5b6000600660010154431015610d08576040517f08c379a00000000000000000000000000000000000000000000000000000000081526004018080602001828103825260338152602001806113876033913960400191505060405180910390fd5b60066000015460035410610d67576040517f08c379a000000000000000000000000000000000000000000000000000000000815260040180806020018281038252602e8152602001806112e7602e913960400191505060405180910390fd5b6000600160003373ffffffffffffffffffffffffffffffffffffffff1673ffffffffffffffffffffffffffffffffffffffff1681526020019081526020016000205490506000600160003373ffffffffffffffffffffffffffffffffffffffff1673ffffffffffffffffffffffffffffffffffffffff168152602001908152602001600020819055503373ffffffffffffffffffffffffffffffffffffffff166108fc829081150290604051600060405180830381858888f19350505050158015610e36573d6000803e3d6000fd5b507f5912b7ad61865e7a6d5dcaa41e58e9563c7e286fc42999b67e1773e6b76e322d303383604051808473ffffffffffffffffffffffffffffffffffffffff1673ffffffffffffffffffffffffffffffffffffffff1681526020018373ffffffffffffffffffffffffffffffffffffffff1673ffffffffffffffffffffffffffffffffffffffff168152602001828152602001935050505060405180910390a1600191505090565b60006006600001546003541015610f5d576040517f08c379a00000000000000000000000000000000000000000000000000000000081526004018080602001828103825260038152602001807f2e2e2e000000000000000000000000000000000000000000000000000000000081525060200191505060405180910390fd5b600060035490506000600381905550600660030160009054906101000a900473ffffffffffffffffffffffffffffffffffffffff1673ffffffffffffffffffffffffffffffffffffffff166108fc829081150290604051600060405180830381858888f19350505050158015610fd7573d6000803e3d6000fd5b50600191505090565b60606000806000806000806000806006600201600660000154600660010154600660030160009054906101000a900473ffffffffffffffffffffffffffffffffffffffff166003546004546005546000809054906101000a900473ffffffffffffffffffffffffffffffffffffffff1630888054600181600116156101000203166002900480601f0160208091040260200160405190810160405280929190818152602001828054600181600116156101000203166002900480156110e65780601f106110bb576101008083540402835291602001916110e6565b820191906000526020600020905b8154815290600101906020018083116110c957829003601f168201915b50505050509850859550819150985098509850985098509850985098509850909192939495969798565b60055481565b6000806111216112b6565b60026000858152602001908152602001600020604051806040016040529081600082015481526020016001820160009054906101000a900473ffffffffffffffffffffffffffffffffffffffff1673ffffffffffffffffffffffffffffffffffffffff1673ffffffffffffffffffffffffffffffffffffffff16815250509050806000015181602001519250925050915091565b6000809054906101000a900473ffffffffffffffffffffffffffffffffffffffff1681565b6006806000015490806001015490806002018054600181600116156101000203166002900480601f0160208091040260200160405190810160405280929190818152602001828054600181600116156101000203166002900480156112805780601f1061125557610100808354040283529160200191611280565b820191906000526020600020905b81548152906001019060200180831161126357829003601f168201915b5050505050908060030160009054906101000a900473ffffffffffffffffffffffffffffffffffffffff16905084565b60035481565b604051806040016040528060008152602001600073ffffffffffffffffffffffffffffffffffffffff168152509056fe526566756e64206973206e6f7420706f737369626c652069662070726f6a65637420686173206d657420676f616c46756e64696e6720636f6e747269627574696f6e73206d7573742062652067726561746572207468616e20302077656946756e64696e6720636f6e747269627574696f6e732063616e206f6e6c79206265206d616465207468726f7567682046756e64696e6748756220636f6e7472616374526566756e64206973206f6e6c7920706f737369626c652069662070726f6a656374206973207061737420646561646c696e65a165627a7a7230582075829bb1220d387ffa2fa27333b290f5e2d3f63309cddfa15242817aae3b3ac6002950726f6a656374206d75737420696e636c75646520612076616c69642063726561746f72206164647265737350726f6a6563742066756e64696e6720676f616c206d7573742062652067726561746572207468616e203050726f6a65637420646561646c696e65206d7573742062652067726561746572207468616e207468652063757272656e7420626c6f636b",
  "source": "pragma solidity ^0.5.0;\n\ncontract Project {\n\n    struct Properties {\n        uint goal;\n        uint deadline;\n        string title;\n        address payable creator;\n    }\n\n    struct Contribution {\n        uint amount;\n        address contributor;\n    }\n\n    address payable public fundingHub;\n\n    mapping (address => uint) public contributors;\n    mapping (uint => Contribution) public contributions;\n\n    uint public totalFunding;\n    uint public contributionsCount;\n    uint public contributorsCount;\n\n    Properties public properties;\n\n    event LogContributionReceived(address projectAddress, address contributor, uint amount);\n    event LogPayoutInitiated(address projectAddress, address owner, uint totalPayout);\n    event LogRefundIssued(address projectAddress, address contributor, uint refundAmount);\n    event LogFundingGoalReached(address projectAddress, uint totalFunding, uint totalContributions);\n    event LogFundingFailed(address projectAddress, uint totalFunding, uint totalContributions);\n\n    event LogFailure(string message);\n\n    modifier onlyFundingHub {\n        require(fundingHub == msg.sender,\"...\");\n        _;\n    }\n\n    modifier onlyFunded {\n        require(totalFunding >= properties.goal,\"...\");\n        _;\n    }\n\n    constructor(uint _fundingGoal, uint _deadline, string memory _title, address payable _creator) public{\n\n        // Check to see the funding goal is greater than 0\n        require(_fundingGoal > 0, \"Project funding goal must be greater than 0\");\n\n        // Check to see the deadline is in the future\n        require(block.number < _deadline, \"Project deadline must be greater than the current block\");\n\n        // Check to see that a creator (payout) address is valid\n        require(_creator != address(0), \"Project must include a valid creator address\");\n\n        fundingHub = msg.sender;\n\n        // initialize properties struct\n        properties = Properties({\n            goal: _fundingGoal,\n            deadline: _deadline,\n            title: _title,\n            creator: _creator\n        });\n\n        totalFunding = 0;\n        contributionsCount = 0;\n        contributorsCount = 0;\n    }\n\n    /**\n    * Project values are indexed in return value:\n    * [0] -> Project.properties.title\n    * [1] -> Project.properties.goal\n    * [2] -> Project.properties.deadline\n    * [3] -> Project.properties.creator\n    * [4] -> Project.totalFunding\n    * [5] -> Project.contributionsCount\n    * [6] -> Project.contributorsCount\n    * [7] -> Project.fundingHub\n    * [8] -> Project (address)\n    */\n    function getProject() public view returns (string memory, uint, uint, address, uint, uint, uint, address, address) {\n        return (properties.title,\n                properties.goal,\n                properties.deadline,\n                properties.creator,\n                totalFunding,\n                contributionsCount,\n                contributorsCount,\n                fundingHub,\n                address(this));\n    }\n\n    /**\n    * Retrieve indiviual contribution information\n    * [0] -> Contribution.amount\n    * [1] -> Contribution.contributor\n    */\n    function getContribution(uint _id) public view returns (uint, address) {\n        Contribution memory c = contributions[_id];\n        return (c.amount, c.contributor);\n    }\n\n    /**\n    * This is the function called when the FundingHub receives a contribution.\n    * If the contribution was sent after the deadline of the project passed,\n    * or the full amount has been reached, the function must return the value\n    * to the originator of the transaction.\n    * If the full funding amount has been reached, the function must call payout.\n    * [0] -> contribution was made\n    */\n    function fund(address payable _contributor) public payable returns (bool successful) {\n\n        // Check amount is greater than 0\n        require(msg.value > 0,\"Funding contributions must be greater than 0 wei\");\n\n        // Check funding only comes thru fundingHub\n        require(msg.sender == fundingHub, \"Funding contributions can only be made through FundingHub contract\");\n\n        // 1. Check that the project dealine has not passed\n        if (block.number > properties.deadline) {\n            emit LogFundingFailed(address(this), totalFunding, contributionsCount);\n            return false;\n        }\n\n        // 2. Check that funding goal has not already been met\n        if (totalFunding >= properties.goal) {\n            emit LogFundingGoalReached(address(this), totalFunding, contributionsCount);\n            payout();\n            return false;\n        }\n\n        // determine if this is a new contributor\n        uint prevContributionBalance = contributors[_contributor];\n\n        // Add contribution to contributions map\n        Contribution memory c = contributions[contributionsCount];\n        c.contributor = _contributor;\n        c.amount = msg.value;\n\n        // Update contributor's balance\n        contributors[_contributor] += msg.value;\n\n        totalFunding += msg.value;\n        contributionsCount++;\n\n        // Check if contributor is new and if so increase count\n        if (prevContributionBalance == 0) {\n            contributorsCount++;\n        }\n\n        emit LogContributionReceived(address(this), _contributor, msg.value);\n\n        // Check again to see whether the last contribution met the fundingGoal\n        if (totalFunding >= properties.goal) {\n            emit LogFundingGoalReached(address(this), totalFunding, contributionsCount);\n            payout();\n        }\n\n        return true;\n    }\n\n    /**\n    * If funding goal has been met, transfer fund to project creator\n    * [0] -> payout was successful\n    */\n    function payout() public payable onlyFunded returns (bool successful) {\n        uint amount = totalFunding;\n\n        // prevent re-entrancy\n        totalFunding = 0;\n\n        properties.creator.transfer(amount);\n\n        return true;\n    }\n\n    /**\n    * If the deadline is passed and the goal was not reached, allow contributors to withdraw their contributions.\n    * This is slightly different that the final project requirements, see README for details\n    * [0] -> refund was successful\n    */\n    function refund() public payable returns (bool successful) {\n\n        // Check that the project dealine has passed\n        require(block.number >= properties.deadline, \"Refund is only possible if project is past deadline\");\n\n        // Check that funding goal has not already been met\n        require(totalFunding < properties.goal, \"Refund is not possible if project has met goal\");\n\n        uint amount = contributors[msg.sender];\n\n        //prevent re-entrancy attack\n        contributors[msg.sender] = 0;\n\n        msg.sender.transfer(amount);\n        emit LogRefundIssued(address(this), msg.sender, amount);\n\n        return true;\n    }\n\n    function kill() public onlyFundingHub {\n        selfdestruct(fundingHub);\n    }\n\n    /**\n    * Don't allow Ether to be sent blindly to this contract\n    */\n    function() external{\n        revert(\"...\");\n    }\n}",
  "sourcePath": "/home/sanchaymittal/CrowdFunding-dapp/contracts/Project.sol",
  "compiler": {
    "name": "solc",
    "version": "0.5.8+commit.23d335f2.Emscripten.clang"
  },
  "schemaVersion": "3.0.11",
  "updatedAt": "2019-08-15T20:59:09.030Z",
  "devdoc": {
    "methods": {}
  },
  "userdoc": {
    "methods": {
      "fund(address)": {
        "notice": "This is the function called when the FundingHub receives a contribution. If the contribution was sent after the deadline of the project passed, or the full amount has been reached, the function must return the value to the originator of the transaction. If the full funding amount has been reached, the function must call payout. [0] -> contribution was made"
      },
      "getContribution(uint256)": {
        "notice": "Retrieve indiviual contribution information [0] -> Contribution.amount [1] -> Contribution.contributor"
      },
      "getProject()": {
        "notice": "Project values are indexed in return value: [0] -> Project.properties.title [1] -> Project.properties.goal [2] -> Project.properties.deadline [3] -> Project.properties.creator [4] -> Project.totalFunding [5] -> Project.contributionsCount [6] -> Project.contributorsCount [7] -> Project.fundingHub [8] -> Project (address)"
      },
      "payout()": {
        "notice": "If funding goal has been met, transfer fund to project creator [0] -> payout was successful"
      },
      "refund()": {
        "notice": "If the deadline is passed and the goal was not reached, allow contributors to withdraw their contributions. This is slightly different that the final project requirements, see README for details [0] -> refund was successful"
      }
    }
  }
}